{
  "_format": "hh3-artifact-1",
  "contractName": "ShopMateSettlement",
  "sourceName": "contracts/ShopMateSettlement.sol",
  "abi": [
    {
      "inputs": [],
      "stateMutability": "nonpayable",
      "type": "constructor"
    },
    {
      "inputs": [
        {
          "internalType": "address",
          "name": "owner",
          "type": "address"
        }
      ],
      "name": "OwnableInvalidOwner",
      "type": "error"
    },
    {
      "inputs": [
        {
          "internalType": "address",
          "name": "account",
          "type": "address"
        }
      ],
      "name": "OwnableUnauthorizedAccount",
      "type": "error"
    },
    {
      "inputs": [],
      "name": "ReentrancyGuardReentrantCall",
      "type": "error"
    },
    {
      "anonymous": false,
      "inputs": [
        {
          "indexed": true,
          "internalType": "address",
          "name": "contributor",
          "type": "address"
        },
        {
          "indexed": true,
          "internalType": "address",
          "name": "operator",
          "type": "address"
        },
        {
          "indexed": false,
          "internalType": "uint256",
          "name": "contributorAmount",
          "type": "uint256"
        },
        {
          "indexed": false,
          "internalType": "uint256",
          "name": "operatorAmount",
          "type": "uint256"
        }
      ],
      "name": "CommissionDistributed",
      "type": "event"
    },
    {
      "anonymous": false,
      "inputs": [
        {
          "indexed": true,
          "internalType": "address",
          "name": "previousOwner",
          "type": "address"
        },
        {
          "indexed": true,
          "internalType": "address",
          "name": "newOwner",
          "type": "address"
        }
      ],
      "name": "OwnershipTransferred",
      "type": "event"
    },
    {
      "anonymous": false,
      "inputs": [
        {
          "indexed": true,
          "internalType": "address",
          "name": "payer",
          "type": "address"
        },
        {
          "indexed": false,
          "internalType": "uint256",
          "name": "amount",
          "type": "uint256"
        }
      ],
      "name": "PaymentReceived",
      "type": "event"
    },
    {
      "inputs": [],
      "name": "AGENT_OPERATOR_RATIO",
      "outputs": [
        {
          "internalType": "uint256",
          "name": "",
          "type": "uint256"
        }
      ],
      "stateMutability": "view",
      "type": "function"
    },
    {
      "inputs": [],
      "name": "DATA_CONTRIBUTOR_RATIO",
      "outputs": [
        {
          "internalType": "uint256",
          "name": "",
          "type": "uint256"
        }
      ],
      "stateMutability": "view",
      "type": "function"
    },
    {
      "inputs": [
        {
          "internalType": "address",
          "name": "",
          "type": "address"
        }
      ],
      "name": "agentBalances",
      "outputs": [
        {
          "internalType": "uint256",
          "name": "",
          "type": "uint256"
        }
      ],
      "stateMutability": "view",
      "type": "function"
    },
    {
      "inputs": [
        {
          "internalType": "address",
          "name": "agentId",
          "type": "address"
        }
      ],
      "name": "authorizeAgent",
      "outputs": [],
      "stateMutability": "nonpayable",
      "type": "function"
    },
    {
      "inputs": [
        {
          "internalType": "address",
          "name": "contributor",
          "type": "address"
        },
        {
          "internalType": "address",
          "name": "operator",
          "type": "address"
        }
      ],
      "name": "distributeCommission",
      "outputs": [],
      "stateMutability": "nonpayable",
      "type": "function"
    },
    {
      "inputs": [],
      "name": "owner",
      "outputs": [
        {
          "internalType": "address",
          "name": "",
          "type": "address"
        }
      ],
      "stateMutability": "view",
      "type": "function"
    },
    {
      "inputs": [
        {
          "internalType": "address",
          "name": "agentId",
          "type": "address"
        }
      ],
      "name": "payToAgent",
      "outputs": [],
      "stateMutability": "payable",
      "type": "function"
    },
    {
      "inputs": [],
      "name": "renounceOwnership",
      "outputs": [],
      "stateMutability": "nonpayable",
      "type": "function"
    },
    {
      "inputs": [
        {
          "internalType": "address",
          "name": "newOwner",
          "type": "address"
        }
      ],
      "name": "transferOwnership",
      "outputs": [],
      "stateMutability": "nonpayable",
      "type": "function"
    },
    {
      "inputs": [
        {
          "internalType": "address",
          "name": "",
          "type": "address"
        }
      ],
      "name": "userAuthorizedAgent",
      "outputs": [
        {
          "internalType": "address",
          "name": "",
          "type": "address"
        }
      ],
      "stateMutability": "view",
      "type": "function"
    }
  ],
  "bytecode": "0x6080604052348015600e575f5ffd5b503380603357604051631e4fbdf760e01b81525f600482015260240160405180910390fd5b603a816063565b5060017f9b779b17422d0df92223018b32b4d1fa46e071723d6817e2486d003becc55f005560b2565b5f80546001600160a01b038381166001600160a01b0319831681178455604051919092169283917f8be0079c531659141344cd1fd0a4f28419497f9722a3daafe3b4186f6b6457e09190a35050565b610695806100bf5f395ff3fe60806040526004361061008f575f3560e01c80638da5cb5b116100575780638da5cb5b14610157578063977fd0e614610187578063f2fde38b1461019c578063f9725e12146101bb578063fc9e6950146101ef575f5ffd5b806325b16a8b146100935780634888fab3146100d15780636d88b24d146100e6578063715018a61461012e57806384b6ebdb14610142575b5f5ffd5b34801561009e575f5ffd5b506100be6100ad36600461058b565b60016020525f908152604090205481565b6040519081526020015b60405180910390f35b6100e46100df36600461058b565b61020e565b005b3480156100f1575f5ffd5b506100e461010036600461058b565b335f90815260026020526040902080546001600160a01b0319166001600160a01b0392909216919091179055565b348015610139575f5ffd5b506100e46102d9565b34801561014d575f5ffd5b506100be6102bc81565b348015610162575f5ffd5b505f546001600160a01b03165b6040516001600160a01b0390911681526020016100c8565b348015610192575f5ffd5b506100be61012c81565b3480156101a7575f5ffd5b506100e46101b636600461058b565b6102ec565b3480156101c6575f5ffd5b5061016f6101d536600461058b565b60026020525f90815260409020546001600160a01b031681565b3480156101fa575f5ffd5b506100e46102093660046105ab565b610326565b6102166104ab565b5f341161025f5760405162461bcd60e51b81526020600482015260126024820152710416d6f756e74206d757374206265203e20360741b60448201526064015b60405180910390fd5b6001600160a01b0381165f90815260016020526040812080543492906102869084906105f0565b909155505060405134815233907f6ef95f06320e7a25a04a175ca677b7052bdd97131872c2192525a629f51be7709060200160405180910390a26102d660015f5160206106405f395f51905f5255565b50565b6102e16104c6565b6102ea5f6104f2565b565b6102f46104c6565b6001600160a01b03811661031d57604051631e4fbdf760e01b81525f6004820152602401610256565b6102d6816104f2565b61032e6104c6565b6103366104ab565b335f90815260016020526040902054806103925760405162461bcd60e51b815260206004820152601860248201527f4e6f2062616c616e636520746f206469737472696275746500000000000000006044820152606401610256565b5f6103e86103a261012c84610609565b6103ac9190610620565b90505f6103e86103be6102bc85610609565b6103c89190610620565b6040519091506001600160a01b0386169083156108fc029084905f818181858888f193505050501580156103fe573d5f5f3e3d5ffd5b506040516001600160a01b0385169082156108fc029083905f818181858888f19350505050158015610432573d5f5f3e3d5ffd5b50335f9081526001602090815260408083209290925581518481529081018390526001600160a01b0386811692908816917fb1d1f91b02448540ac6b32d30eacb0974d10ea9fceeadfe19c52854becc379a8910160405180910390a35050506104a760015f5160206106405f395f51905f5255565b5050565b6104b3610541565b60025f5160206106405f395f51905f5255565b5f546001600160a01b031633146102ea5760405163118cdaa760e01b8152336004820152602401610256565b5f80546001600160a01b038381166001600160a01b0319831681178455604051919092169283917f8be0079c531659141344cd1fd0a4f28419497f9722a3daafe3b4186f6b6457e09190a35050565b5f5160206106405f395f51905f52546002036102ea57604051633ee5aeb560e01b815260040160405180910390fd5b80356001600160a01b0381168114610586575f5ffd5b919050565b5f6020828403121561059b575f5ffd5b6105a482610570565b9392505050565b5f5f604083850312156105bc575f5ffd5b6105c583610570565b91506105d360208401610570565b90509250929050565b634e487b7160e01b5f52601160045260245ffd5b80820180821115610603576106036105dc565b92915050565b8082028115828204841417610603576106036105dc565b5f8261063a57634e487b7160e01b5f52601260045260245ffd5b50049056fe9b779b17422d0df92223018b32b4d1fa46e071723d6817e2486d003becc55f00a2646970667358221220c753456073a43ca068dfa925cab341d8752cc8f32f0cd39014cdfeffa3c52ee064736f6c634300081c0033",
  "linkReferences": {},
  "deployedLinkReferences": {},
  "immutableReferences": {},
  "inputSourceName": "project/contracts/ShopMateSettlement.sol",
  "buildInfoId": "solc-0_8_28-5bb76fcc285a836b023c70cc233a4e2e6bba4ce3"
}